:100000000C9434000C943E000C943E000C943E0082
:100010000C943E000C943E000C943E000C943E0068
:100020000C943E000C943E000C943E000C943E0058
:100030000C943E000C943E000C943E000C943E0048
:100040000C943E000C943E000C943E000C943E0038
:100050000C943E000C943E000C943E000C943E0028
:100060000C943E000C943E0011241FBECFEFD8E04C
:10007000DEBFCDBF0E944A000C9453000C940000D8
:10008000529A0895559A81EA84BD84E085BD84EB37
:1000900088BD0895529A559A81EA84BD84E085BD51
:0A00A00084EB88BDFFCFF894FFCF7A
:00000001FF
