:107800000C94343C0C94513C0C94513C0C94513CE1
:107810000C94513C0C94513C0C94513C0C94513CB4
:107820000C94513C0C94513C0C94513C0C94513CA4
:107830000C94513C0C94513C0C94513C0C94513C94
:107840000C94513C0C94513C0C94513C0C94513C84
:107850000C94513C0C94513C0C94513C0C94513C74
:107860000C94513C0C94513C11241FBECFEFD8E036
:10787000DEBFCDBF11E0A0E0B1E0ECEFF5E802C063
:1078800005900D92A230B107D9F712E0A2E0B1E065
:1078900001C01D92AD30B107E1F70E94D03D0C94BC
:1078A000FC420C94003CCF92DF92EF92FF92C12CED
:1078B000D12C76018091C00087FD16C08FEFC81AC9
:1078C000D80AE80AF80A81E4C81682E4D8068FE0EC
:1078D000E806F10478F3E0910201F09103010995C3
:1078E0008091C00087FFEACF2091C600822F90913F
:1078F000C00095FFFCCF2093C60021364CF4203306
:1079000014F080ED820FFF90EF90DF90CF900895FC
:1079100089EA820FFF90EF90DF90CF900895CF9388
:107920000E94533CC82F0E94533C90E1C99F800D98
:107930001124CF910895282F2595259525952595D6
:10794000205D8F708A3074F0895A9091C00095FF45
:10795000FCCF2093C6009091C00095FFFCCF809390
:10796000C6000895805DF1CF9091C00095FFFCCFD7
:107970008093C6000895CF92DF92EF92FF92C12CC0
:10798000D12C76018091C00087FD16C08FEFC81AF8
:10799000D80AE80AF80A81E4C81682E4D8068FE01B
:1079A000E806F10478F3E0910201F09103010995F2
:1079B0008091C00087FFEACF8091C600FF90EF90D2
:1079C000DF90CF900895CF92DF92EF92FF92CF9306
:1079D000882311F1C82FC12CD12C76019091C000C1
:1079E00097FD16C08FEFC81AD80AE80AF80A81E492
:1079F000C81682E4D8068FE0E806F10478F3E09137
:107A00000201F091030109959091C00097FFEACF20
:107A10008091C600C150F9F6CF91FF90EF90DF90B2
:107A2000CF900895CF92DF92EF92FF92CF93C82F1D
:107A3000C12CD12C76019091C00097FD16C08FEF1C
:107A4000C81AD80AE80AF80A81E4C81682E4D806F7
:107A50008FE0E806F10478F3E0910201F091030170
:107A600009959091C00097FFEACF9091C60090329F
:107A700069F0809104018F5F80930401853001F1EA
:107A8000CF91FF90EF90DF90CF9008959091C0003C
:107A900095FFFCCF84E18093C6009091C00095FFD4
:107AA000FCCFC093C6008091C00085FFFCCF80E171
:107AB0008093C600CF91FF90EF90DF90CF90089514
:107AC000E0910201F0910301CF91FF90EF90DF90E0
:107AD000CF900994CF92DF92EF92FF92C12CD12CDC
:107AE00076018091C00087FD16C08FEFC81AD80AB2
:107AF000E80AF80A81E4C81682E4D8068FE0E806AE
:107B0000F10478F3E0910201F0910301099580916D
:107B1000C00087FFEACF8091C600803261F080917B
:107B200004018F5F809304018530C1F0FF90EF90D6
:107B3000DF90CF9008958091C00085FFFCCF84E155
:107B40008093C6008091C00085FFFCCF80E18093C8
:107B5000C600FF90EF90DF90CF900895E091020172
:107B6000F0910301FF90EF90DF90CF90099415C042
:107B7000299A2FEF31EE94E0215030409040E1F708
:107B800000C0000029982FEF31EE94E021503040E2
:107B90009040E1F700C0000081508111E9CF0895C5
:107BA0000000E0E0F0E0E49180E18093C4001092F6
:107BB000C50088E18093C10086E08093C2005098A0
:107BC000589A219A299A2FEF81EE94E02150804013
:107BD0009040E1F700C000002998EFEFF1EE24E0BB
:107BE000E150F0402040E1F700C00000412C512C52
:107BF000320164E1C62E75E9272EEFE03E2EF0E15A
:107C0000DF2E88248394A1E49A2EB6E5AB2EC2E53C
:107C1000BC2E8091C00087FD16C08FEF481A580A0D
:107C2000680A780A91E4491692E459069FE06906C9
:107C3000710478F3E0910201F091030109958091BC
:107C4000C00087FFEACF8091C6008033A1F1813365
:107C5000C1F1803409F494C0813409F4D8C082346D
:107C600039F1853409F402C1982F9D7F903519F1BF
:107C7000813509F1853509F402C1863509F44DC114
:107C8000843609F4DDC1843709F4FBC2853709F471
:107C9000EBC3863709F4E6C0809104018F5F8093BF
:107CA0000401853009F433C1412C512C3201B1CF8C
:107CB00084E10E94E33C0E946A3D412C512C320138
:107CC000A8CF412C512C32018091C00087FD16C0F5
:107CD000EFEF4E1A5E0A6E0A7E0AF1E44F16F2E4E6
:107CE0005F06FFE06F06710478F3E0910201F09106
:107CF000030109958091C00087FFEACF8091C600FB
:107D0000803251F68091C00085FFFCCFC092C60042
:107D10008091C00085FFFCCF9092C6008091C0008A
:107D200085FFFCCFA092C6008091C00085FFFCCFEC
:107D3000B092C6008091C00085FFFCCF80E28093A6
:107D4000C6008091C00085FFFCCF89E48093C60007
:107D50008091C00085FFFCCF83E58093C6008091B1
:107D6000C00085FFFCCF80E58093C6008091C000F5
:107D700085FFFCCFD092C600412C512C320149CF57
:107D8000412C512C32018091C00087FD16C02FEF8D
:107D9000421A520A620A720A81E4481682E45806BC
:107DA0008FE06806710478F3E0910201F09103011D
:107DB00009958091C00087FFEACF8091C600863880
:107DC00008F479CF412C512C32018091C00087FDFD
:107DD00016C09FEF491A590A690A790AE1E44E165A
:107DE000E2E45E06EFE06E06710478F3E0910201D2
:107DF000F091030109958091C00087FFEACF80913F
:107E0000C6000E946A3D412C512C320102CF412C08
:107E1000512C32018091C00087FD16C0FFEF4F1A30
:107E20005F0A6F0A7F0A21E4421622E452062FE01D
:107E30006206710478F3E0910201F0910301099563
:107E40008091C00087FFEACF8091C600803809F496
:107E5000FFC1813809F403C2823809F407C28839A6
:107E600009F4E7C080E00E94123D1ECF85E00E9429
:107E7000E33C0E946A3D412C512C3201CACE412C78
:107E8000512C32018091C00087FD16C08FEF481A37
:107E9000580A680A780A91E4491692E459069FE064
:107EA0006906710478F3E0910201F09103010995EC
:107EB0008091C00087FFEACF8091C60080930601C1
:107EC000412C512C32018091C00087FD16C0EFEF8C
:107ED0004E1A5E0A6E0A7E0AF1E44F16F2E45F065D
:107EE000FFE06F06710478F3E0910201F091030165
:107EF00009958091C00087FFEACF8091C6008093EA
:107F000007010E946A3D412C512C320182CEE09142
:107F10000201F09103010995C7CE412C512C320189
:107F20008091C00087FD16C02FEF421A520A620AE4
:107F3000720A81E4481682E458068FE068067104EC
:107F400078F3E0910201F091030109958091C0005E
:107F500087FFEACF8091C600803309F08EC1412CA3
:107F6000512C32018091C00087FD16C09FEF491A45
:107F7000590A690A790AE1E44E16E2E45E06EFE086
:107F80006E06710478F3E0910201F0910301099506
:107F90008091C00087FFEACF8091C600412C512C10
:107FA00032018091C00087FD16C0FFEF4F1A5F0AB3
:107FB0006F0A7F0A21E4421622E452062FE062068D
:107FC000710478F3E0910201F09103010995809129
:107FD000C00087FFEACF1091C600412C512C32011E
:107FE0008091C00087FD16C08FEF481A580A680AB2
:107FF000780A91E4491692E459069FE069067104F3
:1080000078F3E0910201F091030109958091C0009D
:1080100087FFEACF8091C600112309F470C21130A6
:1080200009F4E3C28FE00E94123D412C512C320131
:10803000F0CD83E00E94123D412C512C3201E9CD5C
:10804000412C512C32018091C00087FD16C0EFEF0A
:108050004E1A5E0A6E0A7E0AF1E44F16F2E45F06DB
:10806000FFE06F06710478F3E0910201F0910301E3
:1080700009958091C00087FFEACF8091C600809368
:108080000902412C512C32018091C00087FD16C09D
:108090002FEF421A520A620A720A81E4481682E4F9
:1080A00058068FE06806710478F3E0910201F091C0
:1080B000030109958091C00087FFEACF8091C60037
:1080C0008093080280910C028E7F80930C02412CD9
:1080D000512C32018091C00087FD16C09FEF491AD4
:1080E000590A690A790AE1E44E16E2E45E06EFE015
:1080F0006E06710478F3E0910201F0910301099595
:108100008091C00087FFEACF8091C600853429F4B2
:1081100080910C02816080930C0280910802909102
:108120000902892B89F158E0E52E51E0F52E00E097
:1081300010E0412C512C32018091C00087FD16C007
:10814000FFEF4F1A5F0A6F0A7F0A21E4421622E40A
:1081500052062FE06206710478F3E0910201F0917B
:10816000030109958091C00087FFEACF8091C60086
:10817000F70181937F010F5F1F4F8091080290915B
:10818000090208171907A8F2412C512C32018091DD
:10819000C00087FD16C0FFEF4F1A5F0A6F0A7F0A03
:1081A00021E4421622E452062FE06206710478F3BD
:1081B000E0910201F091030109958091C00087FFD1
:1081C000EACF8091C600803209F066CD80910C0222
:1081D00080FF9CC18091060190910701880F991F33
:1081E00090930701809306012091080230910902C3
:1081F000232BF1F0E8E0F1E020E030E0F999FECF48
:1082000092BD81BD819180BDFA9AF99A8091060153
:1082100090910701019690930701809306012F5FCB
:108220003F4F40910802509109022417350730F35F
:108230008091C00085FFFCCFC092C6008091C00035
:1082400085FFFCCFD092C600412C512C3201E1CCED
:1082500082E00E94123D412C512C3201DACC81E0A7
:108260000E94123D412C512C3201D3CC80E10E945E
:10827000123D412C512C3201CCCC83E00E94E33CD6
:10828000F1CD412C512C32018091C00087FD16C0E8
:108290008FEF481A580A680A780A91E4491692E45E
:1082A00059069FE06906710478F3E0910201F091AC
:1082B000030109958091C00087FFEACF8091C60035
:1082C00080930902412C512C32018091C00087FD1E
:1082D00016C0EFEF4E1A5E0A6E0A7E0AF1E44F16E0
:1082E000F2E45F06FFE06F06710478F3E0910201AB
:1082F000F091030109958091C00087FFEACF80913A
:10830000C600809308028091060190910701880FB2
:10831000991F9093070180930601412C512C320143
:108320008091C00087FD16C02FEF421A520A620AE0
:10833000720A81E4481682E458068FE068067104E8
:1083400078F3E0910201F091030109958091C0005A
:1083500087FFEACF8091C600853409F4CAC08091B6
:108360000C028E7F80930C02412C512C32018091A3
:10837000C00087FD16C09FEF491A590A690A790A99
:10838000E1E44E16E2E45E06EFE06E06710478F377
:10839000E0910201F091030109958091C00087FFEF
:1083A000EACF8091C600803209F07ECC8091C00077
:1083B00085FFFCCFC092C60080910802909109020F
:1083C000009729F120E030E0E0910601F0910701EB
:1083D00040910C0240FD24C041FD0FC0E49180910A
:1083E000C00085FFFCCFE093C60080910802909109
:1083F0000902E0910601F09107013196F09307011F
:10840000E09306012F5F3F4F2817390708F380914B
:10841000C00085FDAFCC8091C00085FFF8CFAACC0D
:10842000F999FECFF2BDE1BDF89A90B58091C000F8
:1084300085FFFCCF9093C600E0910601F091070103
:108440003196F0930701E093060180910802909124
:1084500009022F5F3F4F2817390708F4B9CF8091E1
:10846000C00085FFD8CF86CC412C512C32018091A1
:10847000C00087FD16C0FFEF4F1A5F0A6F0A7F0A20
:1084800021E4421622E452062FE06206710478F3DA
:10849000E0910201F091030109958091C00087FFEE
:1084A000EACF8091C600803209F0F6CB8091C000FF
:1084B00085FFFCCFC092C6008091C00085FFFCCF35
:1084C0008EE18093C6008091C00085FFFCCF209292
:1084D000C6008091C00085FFFCCF3092C60080911D
:1084E000C00085FFFCCFD092C600412C512C320138
:1084F00090CB80910C02816080930C0235CF8EE18D
:108500000E94123D412C512C320183CB80910701F6
:10851000880F880B882180930B028091060190912F
:108520000701880F991F909307018093060180919E
:10853000080280FF09C0809108029091090201960B
:108540009093090280930802F894F999FECF1127BD
:10855000E0910601F0910701C8E0D1E080910802A6
:1085600090910902103091F4009157000170013090
:10857000D9F303E000935700E8950091570001708C
:108580000130D9F301E100935700E8950990199063
:108590000091570001700130D9F301E000935700BA
:1085A000E8951395103498F0112700915700017049
:1085B0000130D9F305E000935700E895009157008A
:1085C00001700130D9F301E100935700E89532962C
:1085D000029709F0C7CF103011F00296E5CF1124B1
:1085E0008091C00085FF24CE27CE85E90E94123DF0
:0C85F000412C512C32010DCBF894FFCF30
:0285FC008000FD
:040000030000780081
:00000001FF
