:100000000C9434000C9446000C9446000C9446006A
:100010000C9446000C9446000C9446000C94460048
:100020000C9446000C9446000C9446000C94460038
:100030000C9446000C9446000C9446000C94460028
:100040000C9446000C9446000C948F000C94C10054
:100050000C9446000C9446000C9446000C94460008
:100060000C9446000C94460011241FBECFEFD8E03C
:10007000DEBFCDBF11E0A0E0B1E001C01D92A5310F
:10008000B107E1F70E94DB000C940D010C94000015
:10009000FC01148A0895FC01248981E090E0222368
:1000A00011F080E090E00895FC01248981E090E067
:1000B000233111F080E090E00895FC0184898331C0
:1000C00041F08489DF01A80FB11D6C9384898F5F93
:1000D000848B0895FC018489882349F084898150A8
:1000E000848B8489E80FF11D8081FB018083089552
:1000F0001092C50087E68093C400E2ECF0E08081B6
:1001000086608083E1ECF0E08081806980830895DF
:10011000559A81EA84BD84E085BD18BC08951F927C
:100120000F920FB60F9211248F939F93EF93FF932B
:100130009091C60080911401833159F0E09114012F
:10014000F0E0E050FF4F9083809114018F5F809327
:10015000140180911401833149F0FF91EF919F9137
:100160008F910F900FBE0F901F9018958091C10036
:100170008F768093C1008091C10088628093C10016
:10018000ECCF1F920F920FB60F9211248F93EF9323
:10019000FF9310921401E1ECF0E08081877D808371
:1001A000808180698083FF91EF918F910F900FBEC6
:1001B0000F901F90189510921401559A81EA84BDF2
:1001C00084E085BD18BC1092C50087E68093C4000A
:1001D0008091C20086608093C2008091C1008069D6
:1001E0008093C100789494EB809114018823E1F30B
:1001F00098BD2FEF37EA81E6215030408040E1F78B
:1002000000C0000018BC2FEF37EA81E621503040D3
:0E0210008040E1F700C00000E7CFF894FFCF78
:00000001FF
