:100000000C9434000C943E000C943E000C943E0082
:100010000C943E000C943E000C943E000C943E0068
:100020000C943E000C943E000C943E000C943E0058
:100030000C943E000C943E000C943E000C945C002A
:100040000C943E000C943E000C943E000C943E0038
:100050000C943E000C943E000C943E000C943E0028
:100060000C943E000C943E0011241FBECFEFD8E04C
:10007000DEBFCDBF0E947C000C9496000C94000063
:100080008BB18F798BB98AB180668AB92098289A0A
:10009000089516BC89EF87BD86E988BD84B5826561
:1000A00084BDEEE6F0E0808184608083089585B5AC
:1000B000836085BD789408951F920F920FB60F92BA
:1000C00011248F939F9383B1811105C098B587B593
:1000D000981740F018BC9F918F910F900FBE0F9012
:1000E0001F90189588B58F5F88BD9F918F910F9055
:1000F0000FBE0F901F9018958BB18F798BB98AB175
:1001000080668AB92098289A16BC89EF87BD86E94F
:1001100088BD84B5826584BD80916E0084608093C3
:100120006E0085B5836085BD7894FFCFF894FFCFCE
:00000001FF
