:100000000C9434000C943E000C943E000C943E0082
:100010000C943E000C943E000C943E000C943E0068
:100020000C943E000C943E000C943E000C943E0058
:100030000C943E000C943E000C943E000C943E0048
:100040000C943E000C943E000C943E000C943E0038
:100050000C943E000C943E000C943E000C943E0028
:100060000C943E000C943E0011241FBECFEFD8E04C
:10007000DEBFCDBF0E9448000C9450000C940000DD
:10008000559A81EA84BD84E085BD84EB88BD0895DE
:10009000559A81EA84BD84E085BD84EB88BDFFCF9D
:0400A000F894FFCF02
:00000001FF
