:100000000C9434000C9446000C9446000C9446006A
:100010000C9446000C9446000C9446000C94460048
:100020000C9446000C9446000C9446000C94460038
:100030000C9446000C9446000C9446000C94460028
:100040000C9446000C9446000C9490000C94BF0055
:100050000C9446000C9446000C9446000C94460008
:100060000C9446000C94460011241FBECFEFD8E03C
:10007000DEBFCDBF11E0A0E0B1E001C01D92A5310F
:10008000B107E1F70E94DB000C9416010C9400000C
:100090008FEF87B90895FC01148A0895559A81EA73
:1000A00084BD84E085BD18BC089521E030E0FC01EA
:1000B0008489882311F020E030E0C901089521E00F
:1000C00030E0FC018489833111F020E030E0C90187
:1000D0000895FC012489233131F0E20FF11D608382
:1000E0002F5FFC01248B0895FC012489222339F021
:1000F0002150248BE20FF11D8081FB018083089544
:100100001092C50087E68093C400E2ECF0E08081A5
:1001100086608083E1ECF0E08081806980830895CF
:100120001F920F920FB60F9211248F939F93EF930C
:10013000FF939091C600809114018331A9F0E82FBC
:10014000F0E0E050FF4F90838F5F80931401833184
:1001500059F084EB88BDFF91EF919F918F910F90A3
:100160000FBE0F901F9018958091C1008F768093DD
:10017000C1008091C10088628093C100EACF1F92C4
:100180000F920FB60F9211248F9380911401811159
:100190000CC0109214018091C100877D8093C10032
:1001A0008091C10080698093C1008F910F900FBE34
:1001B0000F901F9018958FEF87B9559A81EA84BDEB
:1001C00084E085BD18BC109214011092C50087E62A
:1001D0008093C4008091C20086608093C2008091A9
:1001E000C10080698093C100789431E024E092E0FE
:1001F00088E038B9EFE3FCE93197F1F700C000007F
:1002000028B9EFE3FCE93197F1F700C0000098B995
:10021000EFE3FCE93197F1F700C0000088B9EFE3A4
:10022000FCE93197F1F700C00000E3CFF894FFCF6D
:00000001FF
